:1000000028C0ECC134C033C070C131C030C02FC073
:100010002EC02DC02CC02BC02AC029C028C027C08C
:1000200026C025C024C023C022C099C29BC29FC243
:1000300099C29DC29FC2A1C2A0C29FC29EC2A4C2B9
:10004000A3C29EC294C29CC292C29AC290C298C2DB
:100050008EC211241FBECFEDCDBF20E0A0E6B0E0E0
:1000600001C01D92AC3AB207E1F7AED2C5C3C8CF0A
:1000700002D001D000D09927B7FC9395B5FC939599
:10008000B4FC9395B3FC93959795BB1C09F4B42CE1
:100090009B2D0895AA244091A10080919600813063
:1000A00009F04F7149B94D9B4E9B4F98E0E6F0E047
:1000B00048E05527662774E6972E813048F019F0FE
:1000C000833030F051F04D9905C086E095E018C0BE
:1000D00050919C008CE3982F13C044E0F9DF43E07B
:1000E00059E1652FF0DF552766274B9B04C042E09E
:1000F0007297E9DF369641E04C995091A000EACF23
:1001000035FD02C01082738384839583518362839B
:1001100036964A95A9F7089547FB4F77453050F03A
:10012000499B04C081FF02C091E089276FE016F46B
:1001300060EF8C5FE894A0E6B0E0E3EAF0E05527DA
:10014000E40FF51F09940BC00AC020C035C055C08C
:1001500058C059C05AC05BC05CC067C068C0FD01D0
:1001600041E079B1707A669560F491E0772329F0E7
:100170007FDF4D9991839F70939580FF992790839E
:10018000542B36968695440F71F785C0A3949091B1
:100190009C00FD0143E0669548F480FF03C0108297
:1001A000A68202C0A0821682542BA90E3C96869588
:1001B000440F440F81F76FC082FB762F6370E6DF38
:1001C00072FF1AC0789770919E004B9B79E15FB1E6
:1001D0005F7056F099279083968394879D9B02C009
:1001E0004C999395928B07C0506170837683909160
:1001F0009F009487928B5FB952C097E1A92E9927EF
:10020000C8CF90E335C098E233C090E231C098E1A6
:100210002FC06894843038F0782F8295869568E0F6
:10022000ECDF872F60E390E103C098E001C090E02D
:10023000482F8430A0F49F931BD09F915091910040
:10024000409391005423513051F19B9B442760EF20
:100250000EF460E386E040FD8091920009C0863094
:1002600009F484E0809392005091910050FF17C0F0
:10027000980FE199FECF9EBBE09A8DB3FD01562FFA
:1002800077E1669520F4992780FD972F9083369625
:1002900086956623B1F750959FB195239FB9089530
:1002A0009E9918C0811103C08AE617D013C08BE64F
:1002B00014D0861B79F48AE610D0885A59F489E65E
:1002C0000CD0885F39F44295440F440F416088E6B2
:1002D00004D0841B089545BB64BB809390009A9A18
:1002E0009A99FECF15BA862D08958FB619BE4F93F1
:1002F0005F938F939F93EF93FF93789451EA939436
:10030000951610F054E6952EE3E6F0E041E088B350
:100310009081991610F4842B03C040958423409556
:100320003696440FA9F788BB95124CC040919D00AA
:10033000509193005395541710F055279CDE50931D
:10034000930090919500992319F09A9590939500B8
:10035000AA2009F0AA94E0E6F0E041E09FB14E99AE
:100360004F9B02C05523F1F480818823D9F08A95F0
:10037000C1F44D9B0BC081818695818381F080FF04
:1003800002C081E00CC08770865F04C0892F84237F
:1003900029F0828140959423409502C08181942B5D
:1003A0009FB980838381942329F0813A38F4948122
:1003B000890F04C0853610F09581891B838336969A
:1003C000440F61F6F894FF91EF919F918F915F91A7
:1003D00040E449BF48BF4F918FBE18959598949AB5
:1003E000829B5CC0829B5AC0829B58C02FB6EF9301
:1003F000FF93330C441C83993394999909C0989BBB
:1004000024C05A940AF047C0999A989864B275B279
:100410005394E52DE23091F0E53081F0E83071F051
:10042000EB3080F460FA369467947694A0F51EF46D
:100430009598949830C0949A959A2DC030FC2BC012
:10044000999829C099989A9826C0F42DFF71F13196
:1004500011F5F32DF974F934F1F4E32D9F98E7FDCC
:100460009F9A9A9B18C0E695FE2FE370F871F69557
:10047000EF2BE095F0919000EF27EF7061F4F2958B
:10048000F770E6E0EF1BFCE05524E0FD5F0EFF0F88
:10049000E695D9F7989AFF91EF912FBE1895F894A9
:1004A000809395007894809195008111FCCF0895F8
:1004B000F89432DE789408951092AB0045E150E054
:1004C00068E370E087E990E082D14FEF60E08AE670
:1004D00002DF4FEF60E089E6FEDE4FEF60E088E686
:1004E000FADE809196009091970098138E9A9E98CC
:1004F00088980895889A9E9A8FEF809394004FEF82
:1005000060E08BE6E8DE4FEF60E28AE6E4DE4FEF84
:1005100068EF89E6E0DE4FEF61E088E6DCDE4FEF72
:1005200060E081E0D8DE89E1BACFCF93DF9382E04B
:10053000D4DEC82F81E0D1DED82F843130F4E82F0B
:10054000F0E0E956FF4F608101C060E08D2F90E040
:1005500084319105E8F4FC01EB5EFF4F0994CC3047
:1005600098F016C08DEF8C0F853670F011C0C43036
:1005700058F00EC0C03440F00BC0C11105C008C017
:100580008DEF8C0F863620F480919400D81779F087
:100590004FEF82E0A0DE4FEF60E080E09CDEDF3FC7
:1005A00009F48ADFD0939400DF91CF910895C617A4
:1005B000C9F3ED2FF0E0E956FF4FC0834FEF60E045
:1005C00080E089DE67DDEECF83E08BBB8EE182BB0E
:1005D00080E381BB8FEF87BB81E085BF80E48BBF69
:1005E00029E63AE03BBD2ABD99E09EBD89BF45E1C1
:1005F00050E068E370E087E990E0DBD080919700FD
:100600008093960047DD7894D09196008091980071
:100610001091AB0017FF11C01F70D33011F443E0ED
:1006200001C04FE090919900612F90FF04C0629546
:10063000607F4295407F4FDE12C0880F30DF4D2F24
:10064000D23010F46FEF08C06FE080E031DFD530BA
:1006500028F04D2F406860EF80E02ADF10E09D9A7F
:10066000B32C00E08EEFE82EED0E8D2F8068F82E73
:10067000D09098008D2D31DEC82F4E9B04C088236A
:1006800011F0D13099F0D230A0F0C0909900C0FCA8
:10069000C295D33011F4C7700DC0CF70D53050F073
:1006A000C1FE02C0C695C695C37004C0C12CCFEF71
:1006B00001C0C12CC11731F09C9A6C2F61274D2FBE
:1006C0008C2FF6DE9F9B04C09E9B24C0F5DE22C0CB
:1006D000819B02C081E007C085E0E1DE8199FACF0D
:1006E000819BFECF80E04C2D6D2DDADD811105C0A0
:1006F0009E9B02C0E1DE01C0FDDE9C9B0BC09C986E
:100700004A9B08C081E08E1528F06C2F60688CE44D
:1007100090E065D09E9909DFD53020F4102F012F8D
:100720001C2FA6CF80919A0010919B00489B26C059
:10073000D73020F1D2DD9091A20011118295292F9E
:100740002095822792958923982F977099F082FFA0
:1007500005C08091A9001091AA0010C081FF05C0BA
:100760008091A7001091A80009C08091A500109168
:10077000A60004C08091A3001091A400883619F44B
:100780009B9880E002C09B9AA8DD10FD829511FF26
:1007900002C086958695182FD93011F0137001C0CC
:1007A0001170101709F4BBCF4F2D60EF812F80DE41
:1007B000B6CFA82F862FE82FE199FECF05C0EEBB5C
:1007C000E09AE3950DB20D924150C8F70895A82F15
:1007D000862F02C02D9104D04150E0F70895262FB6
:1007E000E199FECF1CBA8EBB2DBB0FB6F894E29AEE
:0C07F000E19A0FBE01960895F894FFCF27
:00000001FF
